{
  "contractName": "RockPaperScissors",
  "abi": [
    {
      "constant": true,
      "inputs": [
        {
          "name": "",
          "type": "address"
        }
      ],
      "name": "players",
      "outputs": [
        {
          "name": "owner",
          "type": "address"
        },
        {
          "name": "bet",
          "type": "uint256"
        },
        {
          "name": "hashedMove",
          "type": "bytes32"
        },
        {
          "name": "betSubmitted",
          "type": "bool"
        }
      ],
      "payable": false,
      "stateMutability": "view",
      "type": "function"
    },
    {
      "inputs": [],
      "payable": false,
      "stateMutability": "nonpayable",
      "type": "constructor"
    },
    {
      "payable": false,
      "stateMutability": "nonpayable",
      "type": "fallback"
    },
    {
      "anonymous": false,
      "inputs": [
        {
          "indexed": false,
          "name": "playerIndex",
          "type": "uint256"
        }
      ],
      "name": "LogWinner",
      "type": "event"
    },
    {
      "anonymous": false,
      "inputs": [
        {
          "indexed": false,
          "name": "_amount",
          "type": "uint256"
        }
      ],
      "name": "LogEtherDeposed",
      "type": "event"
    },
    {
      "constant": true,
      "inputs": [
        {
          "name": "aliceMove",
          "type": "uint8"
        },
        {
          "name": "bobMove",
          "type": "uint8"
        }
      ],
      "name": "compareMoves",
      "outputs": [
        {
          "name": "winner",
          "type": "uint256"
        }
      ],
      "payable": false,
      "stateMutability": "view",
      "type": "function"
    },
    {
      "constant": false,
      "inputs": [
        {
          "name": "_hashedMove",
          "type": "bytes32"
        }
      ],
      "name": "betGame",
      "outputs": [],
      "payable": true,
      "stateMutability": "payable",
      "type": "function"
    },
    {
      "constant": false,
      "inputs": [],
      "name": "play",
      "outputs": [
        {
          "name": "",
          "type": "bool"
        }
      ],
      "payable": true,
      "stateMutability": "payable",
      "type": "function"
    },
    {
      "constant": true,
      "inputs": [
        {
          "name": "_player",
          "type": "address"
        },
        {
          "name": "_move",
          "type": "string"
        }
      ],
      "name": "hashPlay",
      "outputs": [
        {
          "name": "",
          "type": "bytes32"
        }
      ],
      "payable": false,
      "stateMutability": "pure",
      "type": "function"
    },
    {
      "constant": false,
      "inputs": [],
      "name": "kill",
      "outputs": [],
      "payable": false,
      "stateMutability": "nonpayable",
      "type": "function"
    }
  ],
  "bytecode": "0x608060405234801561001057600080fd5b5033600260006101000a81548173ffffffffffffffffffffffffffffffffffffffff021916908373ffffffffffffffffffffffffffffffffffffffff160217905550610c4b806100616000396000f300608060405260043610610078576000357c0100000000000000000000000000000000000000000000000000000000900463ffffffff16806341c0e1b51461008a578063570369e3146100a1578063634e395d146100c557806393e84cd914610116578063cbd7bbab14610138578063e2eb41ff146101dd575b34801561008457600080fd5b50600080fd5b34801561009657600080fd5b5061009f610281565b005b6100c360048036038101908080356000191690602001909291905050506102bc565b005b3480156100d157600080fd5b50610100600480360381019080803560ff169060200190929190803560ff169060200190929190505050610561565b6040518082815260200191505060405180910390f35b61011e6106ec565b604051808215151515815260200191505060405180910390f35b34801561014457600080fd5b506101bf600480360381019080803573ffffffffffffffffffffffffffffffffffffffff169060200190929190803590602001908201803590602001908080601f0160208091040260200160405190810160405280939291908181526020018383808284378201915050505050509192919290505050610aa1565b60405180826000191660001916815260200191505060405180910390f35b3480156101e957600080fd5b5061021e600480360381019080803573ffffffffffffffffffffffffffffffffffffffff169060200190929190505050610bc2565b604051808573ffffffffffffffffffffffffffffffffffffffff1673ffffffffffffffffffffffffffffffffffffffff16815260200184815260200183600019166000191681526020018215151515815260200194505050505060405180910390f35b600260009054906101000a900473ffffffffffffffffffffffffffffffffffffffff1673ffffffffffffffffffffffffffffffffffffffff16ff5b6000809054906101000a900460ff16151561040f5760016000806101000a81548160ff02191690831515021790555034600560008073ffffffffffffffffffffffffffffffffffffffff1681526020019081526020016000206001016000828254019250508190555033600560008073ffffffffffffffffffffffffffffffffffffffff16815260200190815260200160002060000160006101000a81548173ffffffffffffffffffffffffffffffffffffffff021916908373ffffffffffffffffffffffffffffffffffffffff16021790555080600560008073ffffffffffffffffffffffffffffffffffffffff16815260200190815260200160002060020181600019169055506001600560008073ffffffffffffffffffffffffffffffffffffffff16815260200190815260200160002060030160006101000a81548160ff02191690831515021790555061055e565b3460015414151561041f57600080fd5b6001600060016101000a81548160ff0219169083151502179055503460056000600173ffffffffffffffffffffffffffffffffffffffff168152602001908152602001600020600101600082825401925050819055503360056000600173ffffffffffffffffffffffffffffffffffffffff16815260200190815260200160002060000160006101000a81548173ffffffffffffffffffffffffffffffffffffffff021916908373ffffffffffffffffffffffffffffffffffffffff1602179055508060056000600173ffffffffffffffffffffffffffffffffffffffff1681526020019081526020016000206002018160001916905550600160056000600173ffffffffffffffffffffffffffffffffffffffff16815260200190815260200160002060030160006101000a81548160ff0219169083151502179055505b50565b600081600381111561056f57fe5b83600381111561057b57fe5b141561058a57600290506106e6565b6001600381111561059757fe5b8360038111156105a357fe5b14156105da57600260038111156105b657fe5b8260038111156105c257fe5b14156105d157600190506106e6565b600090506106e6565b600260038111156105e757fe5b8360038111156105f357fe5b14156106295760038081111561060557fe5b82600381111561061157fe5b141561062057600190506106e6565b600090506106e6565b60038081111561063557fe5b83600381111561064157fe5b1415610678576001600381111561065457fe5b82600381111561066057fe5b141561066f57600190506106e6565b600090506106e6565b6040517f08c379a000000000000000000000000000000000000000000000000000000000815260040180806020018281038252600d8152602001807f4572726f72206f6363757265640000000000000000000000000000000000000081525060200191505060405180910390fd5b92915050565b600080600060010260001916600354600019161415801561071b57506000600102600019166004546000191614155b151561078f576040517f08c379a000000000000000000000000000000000000000000000000000000000815260040180806020018281038252601a8152602001807f4d6f766573206861766520746f206265207375626d697474656400000000000081525060200191505060405180910390fd5b6107b7600260149054906101000a900460ff16600260159054906101000a900460ff16610561565b905060028114156109345760056000600173ffffffffffffffffffffffffffffffffffffffff16815260200190815260200160002060000160009054906101000a900473ffffffffffffffffffffffffffffffffffffffff1673ffffffffffffffffffffffffffffffffffffffff166108fc60023073ffffffffffffffffffffffffffffffffffffffff163181151561084c57fe5b049081150290604051600060405180830381858888f19350505050158015610878573d6000803e3d6000fd5b50600560008073ffffffffffffffffffffffffffffffffffffffff16815260200190815260200160002060000160009054906101000a900473ffffffffffffffffffffffffffffffffffffffff1673ffffffffffffffffffffffffffffffffffffffff166108fc60023073ffffffffffffffffffffffffffffffffffffffff163181151561090257fe5b049081150290604051600060405180830381858888f1935050505015801561092e573d6000803e3d6000fd5b50610a99565b60018114156109ed5760056000600173ffffffffffffffffffffffffffffffffffffffff16815260200190815260200160002060000160009054906101000a900473ffffffffffffffffffffffffffffffffffffffff1673ffffffffffffffffffffffffffffffffffffffff166108fc3073ffffffffffffffffffffffffffffffffffffffff16319081150290604051600060405180830381858888f193505050501580156109e7573d6000803e3d6000fd5b50610a98565b600560008073ffffffffffffffffffffffffffffffffffffffff16815260200190815260200160002060000160009054906101000a900473ffffffffffffffffffffffffffffffffffffffff1673ffffffffffffffffffffffffffffffffffffffff166108fc3073ffffffffffffffffffffffffffffffffffffffff16319081150290604051600060405180830381858888f19350505050158015610a96573d6000803e3d6000fd5b505b5b600191505090565b6000808383604051602001808373ffffffffffffffffffffffffffffffffffffffff1673ffffffffffffffffffffffffffffffffffffffff166c0100000000000000000000000002815260140182805190602001908083835b602083101515610b1f5780518252602082019150602081019050602083039250610afa565b6001836020036101000a038019825116818451168082178552505050505050905001925050506040516020818303038152906040526040518082805190602001908083835b602083101515610b895780518252602082019150602081019050602083039250610b64565b6001836020036101000a038019825116818451168082178552505050505050905001915050604051809103902090508091505092915050565b60056020528060005260406000206000915090508060000160009054906101000a900473ffffffffffffffffffffffffffffffffffffffff16908060010154908060020154908060030160009054906101000a900460ff169050845600a165627a7a723058200f270e4a2fad4c1eab53a4f15d6adb0ce08acce35c3e37a5870c75c4e635f2c50029",
  "source": "pragma solidity ^0.4.24;\n\ncontract RockPaperScissors {\n\n    enum Shape {NONE, ROCK, PAPER, SCISSORS}\n\n    struct Player {\n        address owner;\n        uint bet;\n        bytes32 hashedMove;\n        bool betSubmitted;\n    }\n    bool hasAliceBet;\n    bool hasBobBet;\n\n    uint bet;\n    address owner;\n\n    Shape aliceMove;\n    Shape bobMove;\n\n    bytes32 hashedAliceMove;\n    bytes32 hashedBobMove;\n\n    uint constant aliceIndex = 0;\n    uint constant bobIndex = 1;\n\n    mapping(address => Player) public players;\n\n    event LogWinner(uint playerIndex);\n    event LogEtherDeposed(uint _amount);\n\n    modifier onlyIfMovesSubmitted() {\n        require(hashedAliceMove != bytes32(0) && hashedBobMove != bytes32(0), \"Moves have to be submitted\");\n        _;\n    }\n\n    constructor() public {\n        owner = msg.sender;\n    }\n\n    function compareMoves(Shape aliceMove, Shape bobMove) public view returns (uint winner) {\n        if (aliceMove == bobMove) {\n            return 2;\n        }\n        if (aliceMove == Shape.ROCK) {\n            if (bobMove == Shape.PAPER) {\n                return bobIndex;\n            }\n            else {\n                return aliceIndex;\n            }\n        }\n        if (aliceMove == Shape.PAPER) {\n            if (bobMove == Shape.SCISSORS) {\n                return bobIndex;\n            }\n            else {\n                return aliceIndex;\n            }\n        }\n        if (aliceMove == Shape.SCISSORS) {\n            if (bobMove == Shape.ROCK) {\n                return bobIndex;\n            }\n            else {\n                return aliceIndex;\n            }\n        }\n        else {\n            revert(\"Error occured\");\n        }\n    }\n\n    function betGame(bytes32 _hashedMove) public payable {\n        if (!hasAliceBet) {\n            hasAliceBet = true;\n            players[0].bet += msg.value;\n            players[0].owner = msg.sender;\n            players[0].hashedMove = _hashedMove;\n            players[0].betSubmitted = true;\n        } else {\n            require(bet == msg.value);\n            hasBobBet = true; \n            players[1].bet += msg.value;\n            players[1].owner = msg.sender;\n            players[1].hashedMove = _hashedMove;\n            players[1].betSubmitted = true;\n        }\n    }\n\n    function play() public payable onlyIfMovesSubmitted returns (bool) {\n        uint gameWinner = compareMoves(aliceMove, bobMove);\n        if (gameWinner == 2) {\n            players[1].owner.transfer(this.balance/2);\n            players[0].owner.transfer(this.balance/2);\n        } else if (gameWinner == 1) {\n            players[1].owner.transfer(this.balance);\n        } else {\n            players[0].owner.transfer(this.balance);\n        }\n        return true;\n    }\n\n    function hashPlay(address _player, string _move) public pure returns (bytes32) {\n        bytes32 result = keccak256(abi.encodePacked(_player, _move));\n        return result;\n    }\n\n    function kill() public {\n        selfdestruct(owner);\n    }\n\n    function() public {\n        revert();\n    }\n}",
  "sourcePath": "/Users/wojciechkalinski/workspace-eth/wmk-rockpaperscissors/contracts/RockPaperScissors.sol",
  "compiler": {
    "name": "solc",
    "version": "0.4.24+commit.e67f0147.Emscripten.clang"
  },
  "schemaVersion": "2.0.1",
  "updatedAt": "2018-11-26T09:31:31.281Z"
}